:020000040000FA
:0400000007EF00F016
:0A0008005F82D8ED0CF067EF11F0F5
:10100000005365742054656D703A20005365742058
:1010100048756D3A2000256400001EC036F01FC0E0
:1010200037F020C038F021C039F022C03AF023C098
:101030003BF024C03CF025C03DF03DBE22EF08F05F
:1010400025EF08F0010E26EF08F0000E346E356A29
:1010500034503510D8B42FEF08F031EF08F041EFDD
:1010600008F03D1E3C1E3B1E3A1E391E381E371E20
:10107000366C000E3722382239223A223B223C229B
:101080003D22000165BF47EF08F049EF08F04AEF45
:1010900008F0669365BF57EF08F0655106E16405F7
:1010A000D8B055EF08F057EF08F05DEF08F0000EEC
:1010B000316E010E306E61EF08F064C030F065C033
:1010C00031F062C032F063C033F034503510D8A430
:1010D0006CEF08F06EEF08F075EF08F066A573EF9F
:1010E00008F075EF08F078EF08F03206D8A0330664
:1010F000000E3F6E1F0E3E6E000E996FFCEF08F063
:101100003E06D8A03F067A0E3E24D96E000E3F2040
:10111000DA6E36C001F037C002F038C003F039C0D3
:1011200004F03AC005F03BC006F03CC007F03DC0FB
:1011300008F00A0E096E000E0A6E000E0B6E000E0D
:101140000C6E000E0D6E000E0E6E000E0F6E000E79
:10115000106E26EC0CF001C026F002C027F003C090
:1011600028F004C029F005C02AF006C02BF007C003
:101170002CF008C02DF026C013F028C014F00BECA2
:1011800011F01350300FDF6E3006D8A03106320652
:10119000D8A0330636C001F037C002F038C003F0E3
:1011A00039C004F03AC005F03BC006F03CC007F07F
:1011B0003DC008F00A0E096E000E0A6E000E0B6E9E
:1011C000000E0C6E000E0D6E000E0E6E000E0F6EF9
:1011D000000E106E62EC0BF001C036F002C037F06A
:1011E00003C038F004C039F005C03AF006C03BF047
:1011F00007C03CF008C03DF03FBE07EF09F03F508C
:1012000008E13E04D8A007EF09F009EF09F03AEF32
:1012100009F036503710381039103A103B103C1096
:101220003D10D8A416EF09F018EF09F080EF08F090
:1012300031BE25EF09F0315006E13004D8B023EF7C
:1012400009F025EF09F080EF08F033BE30EF09F028
:10125000335008E13204D8A030EF09F032EF09F042
:101260003AEF09F0000166B338EF09F03AEF09F000
:1012700080EF08F034503510D8A441EF09F043EF67
:1012800009F04BEF09F0000166A549EF09F04BEFBB
:1012900009F069EF09F03E06D8A03F06345035103A
:1012A000D8A455EF09F057EF09F05DEF09F0000EF3
:1012B0002F6E2B0E2E6E61EF09F0000E2F6E2D0E8D
:1012C0002E6E7A0E3E24D96E000E3F20DA6E2EC0AE
:1012D000DFFF1CC011F01DC012F07A0E3E24136E09
:1012E000000E3F20146E32C015F033C016F0B3EC80
:1012F0000DF011C01CF012C01DF0120053EF0AF0E7
:10130000010E2DEC0FF0000E8C6E52EC10F001501F
:101310000210D8B48EEF09F090EF09F07DEF0AF0DB
:10132000010E5E6E7DEF0AF02BEC11F0CAEC10F0AE
:1013300052EC10F001500210D8B4A1EF09F0A3EF65
:1013400009F07DEF0AF0020E5E6E010E2DEC0FF03B
:101350007DEF0AF049EC11F0EBEC10F052EC10F0DC
:1013600001500210D8B4B7EF09F0B9EF09F07DEFE2
:101370000AF0030E5E6E010E2DEC0FF07DEF0AF009
:10138000A00E8C6E010E6E256E6F000E6F216F6FBA
:10139000580E6E1907E1020E6F19D8A4D2EF09F0AA
:1013A000D4EF09F07DEF0AF0000E6F6F000E6E6F44
:1013B000040E5E6E7DEF0AF07551C35D000EC459D8
:1013C000D8B0E5EF09F0E7EF09F0EBEF09F0050E13
:1013D0005E6E7DEF0AF07551B16FB26BB151C35DB6
:1013E000B251C459D8A0F7EF09F0F9EF09F07DEF39
:1013F0000AF0060E5E6E7DEF0AF0400E8C6E010E56
:101400006C256C6F000E6D216D6FF40E6C5D010E1E
:101410006D59D8A00EEF0AF010EF0AF07DEF0AF038
:101420007551B16FB26BB151C35DB251C459D8A0FF
:101430001CEF0AF01EEF0AF07DEF0AF0000E6D6F50
:10144000000E6C6F060E5E6E7DEF0AF0180E8C6E4D
:10145000010E6A256A6F000E6B216B6FF40E6A191C
:1014600006E16B05D8A437EF0AF039EF0AF07DEFFB
:101470000AF0000E6B6F000E6A6F7351B16FB26BA2
:10148000C551B15DC651B259D8A049EF0AF04BEF32
:101490000AF04FEF0AF0000E5E6E7DEF0AF0030EC9
:1014A0005E6E7DEF0AF05E500001B16FB26BB2511B
:1014B000000AD8B45EEF0AF07DEF0AF0B151000ADD
:1014C000D8B480EF09F0010AD8B494EF09F0030A08
:1014D000D8B4AAEF09F0010AD8B4C0EF09F0070A9E
:1014E000D8B4DCEF09F0010AD8B4FDEF09F0030A23
:1014F000D8B426EF0AF07DEF0AF0120042C0D9FFFF
:1015000043C0DAFFDECFF6FFDDCFF7FF000EF86E47
:101510000800F550250AD8A490EF0AF092EF0AF0DF
:1015200044EF0BF042C0D9FF43C0DAFFDE2A000EC1
:10153000DD22000E0001636F000E626F62C066F074
:1015400063C067F06469656942C0D9FF43C0DAFFD0
:10155000DECFF6FFDDCFF7FF000EF86E0800F55086
:10156000640AD8B4B6EF0AF0B8EF0AF0CCEF0AF08C
:1015700042C0D9FF43C0DAFFDECFF6FFDDCFF7FF71
:10158000000EF86E0800F550690AD8A4CAEF0AF0F8
:10159000CCEF0AF00CEF0BF042C0D9FF43C0DAFFEA
:1015A000DE2A000EDD2244C0D9FF45C0DAFFDFCFBE
:1015B00046F0020EDE26DFCF47F0000EDD2246C0E9
:1015C000D9FF47C0DAFFDECF48F0DDCF49F0000E8B
:1015D00049BEFF0E4A6E4B6E4C6E4D6E4E6E4F6E98
:1015E00040C01CF041C01DF048C01EF049C01FF0B3
:1015F0004AC020F04BC021F04CC022F04DC023F077
:101600004EC024F04FC025F00DEC08F01CC040F097
:101610001DC041F061EF0BF042C0D9FF43C0DAFFBB
:10162000DECFF6FFDDCFF7FF000EF86E0800F550B5
:10163000250AD8A41EEF0BF020EF0BF037EF0BF0CC
:1016400042C0D9FF43C0DAFFDE2A000EDD22000EC1
:10165000026E250E016E40C003F041C004F04EEC56
:101660000DF0000E416E010E406E61EF0BF042C0B6
:10167000D9FF43C0DAFFDE2A000EDD22000E416EE4
:10168000000E406E61EF0BF042C0D9FF43C0DAFF9D
:10169000DECFF6FFDDCFF7FF000EF86E0800F55045
:1016A000016E026A40C003F041C004F04EEC0DF040
:1016B00042C0D9FF43C0DAFFDE2A000EDD2231EF3F
:1016C0000BF01200000E126E10BE6BEF0BF069EF04
:1016D0000BF07DEF0BF0101E0F1E0E1E0D1E0C1ECC
:1016E0000B1E0A1E096C000E0A220B220C220D2270
:1016F0000E220F221022010E126E08BE84EF0BF094
:1017000082EF0BF096EF0BF0081E071E061E051E5B
:10171000041E031E021E016C000E0222032204227C
:101720000522062207220822010E121A20EE13F0CB
:10173000070EDE6AE806FDE209500A100B100C10D5
:101740000D100E100F101010D8B4A9EF0BF0ABEF66
:101750000BF0FDEF0BF0010E116EB9EF0BF0D8900E
:1017600009360A360B360C360D360E360F36103665
:10177000112A10AEBEEF0BF0C0EF0BF0AFEF0BF085
:10178000D8901336143615361636173618361936DD
:101790001A360950015C0A5002580B5003580C507D
:1017A00004580D5005580E5006580F500758105049
:1017B0000858D8A0DEEF0BF0E0EF0BF0F1EF0BF0E4
:1017C0000950015E0A50025A0B50035A0C50045A39
:1017D0000D50055A0E50065A0F50075A1050085A0D
:1017E0001380D89010320F320E320D320C320B3281
:1017F0000A320932112EC0EF0BF01250D8B403EFA9
:101800000CF005EF0CF015EF0CF01A1E191E181E47
:10181000171E161E151E141E136C000E1422152200
:1018200016221722182219221A2213C001F014C0FE
:1018300002F015C003F016C004F017C005F018C080
:1018400006F019C007F01AC008F01200000E126E60
:1018500008BE2FEF0CF02DEF0CF041EF0CF0081E3E
:10186000071E061E051E041E031E021E016C000E2E
:101870000222032204220522062207220822010E48
:10188000126E10BE48EF0CF046EF0CF058EF0CF063
:10189000101E0F1E0E1E0D1E0C1E0B1E0A1E096CA6
:1018A000000E0A220B220C220D220E220F221022E1
:1018B00009500A100B100C100D100E100F10101004
:1018C000D8B465EF0CF067EF0CF0AFEF0CF0010E41
:1018D000116E75EF0CF0D89009360A360B360C36BF
:1018E0000D360E360F361036112A10AE7AEF0CF088
:1018F0007CEF0CF06BEF0CF00950015C0A500258C1
:101900000B5003580C5004580D5005580E500658F3
:101910000F50075810500858D8A091EF0CF093EFD3
:101920000CF0A3EF0CF00950015E0A50025A0B5064
:10193000035A0C50045A0D50055A0E50065A0F50B7
:10194000075A1050085AD89010320F320E320D320A
:101950000C320B320A320932112E7CEF0CF012508D
:10196000D8B4B5EF0CF0B7EF0CF0C7EF0CF0081ED1
:10197000071E061E051E041E031E021E016C000E1D
:10198000022203220422052206220722082201C085
:1019900001F002C002F003C003F004C004F005C06F
:1019A00005F006C006F007C007F008C008F01200F6
:1019B0000600E1CFB3F0E2CFB4F0D9CFB5F0DACF83
:1019C000B6F0F6CFB7F0F7CFB8F0F8CFB9F0F5CF63
:1019D000BAF0F2AAEEEF0CF0F0EF0CF03CEF0DF0E5
:1019E000F2A4F5EF0CF0F7EF0CF03CEF0DF0F294F1
:1019F0000001C851D76EC7C0D6FF010E6825686FB9
:101A0000000E6921696FC80E68196911D8A40BEF1F
:101A10000DF00DEF0DF03AEF0DF09EEC11F0030E0E
:101A20005E18D8B416EF0DF018EF0DF033EF0DF08F
:101A3000040E5E18D8B41FEF0DF021EF0DF033EF58
:101A40000DF0050E5E18D8B428EF0DF02AEF0DF05A
:101A500033EF0DF0060E5E18D8A431EF0DF033EF22
:101A60000DF035EF0DF0FAEC0EF0000E0001696F8D
:101A7000000E686F7EEC09F0BAC0F5FFB9C0F8FF40
:101A8000B8C0F7FFB7C0F6FFB6C0DAFFB5C0D9FFE0
:101A9000B4C0E2FFB3C0E1FF5F9211000350041035
:101AA000D8B455EF0DF057EF0DF060EF0DF0035087
:101AB0000410D8A45EEF0DF060EF0DF065EF0DF0AF
:101AC000015046EC12F0B2EF0DF020EE04F003509E
:101AD000D9260450DA22DE50DE10D8B472EF0DF0B1
:101AE00074EF0DF08FEF0DF020EE04F00350D926C7
:101AF0000450DA2210EE02F00350E1260450E222F4
:101B0000DE50E65CE650800A096EDE50800A095815
:101B1000D8B08DEF0DF08FEF0DF0B2EF0DF020EE9D
:101B200002F00350D9260450DA22DECF05F0DDCFD3
:101B300006F003C0D9FF04C0DAFFDECF07F0DDCF27
:101B400008F005500724D96E06500820DA6E01C04F
:101B5000DFFF20EE02F00350D9260450DA22DE2AFD
:101B6000000EDD221200000166A1B9EF0DF0BBEFFF
:101B70000DF0C5EF0DF013C00AF014C00BF011C04A
:101B80000CF012C00DF0A8EC10F016BECAEF0DF06C
:101B9000CCEF0DF0D2EF0DF015C01AF016C01BF00F
:101BA000D6EF0DF0000E1B6E000E1A6E000E196EB1
:101BB000000E186EE8EF0DF0000E026E200E016EA2
:101BC00011C003F012C004F04EEC0DF0184A192AAF
:101BD0001A50185C1950800A176E1B50800A17584B
:101BE000D8A0F5EF0DF0F7EF0DF0DCEF0DF00001F0
:101BF00066B1FDEF0DF0FFEF0DF009EF0EF013C031
:101C00000AF014C00BF011C00CF012C00DF0A8ECDB
:101C100010F013C001F014C002F083EC11F01A5060
:101C20000124116E1B500220126E12000001C16FC0
:101C3000110E0001C06F3A0EE82EFED7C02FFCD760
:101C400000F0000E0001BE6F120ECDEC11F0040E7C
:101C50000001C06F3D0EE82EFED7C02FFCD700D08C
:101C6000C1C0BEF0130ECDEC11F0040E0001C06F28
:101C70003D0EE82EFED7C02FFCD700D0400E00014D
:101C8000BE6F120ECDEC11F0040E0001C06F3D0EC0
:101C9000E82EFED7C02FFCD700D0000E0001BE6F8B
:101CA000120ECDEC11F012000001BB6FBBC0BDF0F5
:101CB000000E0001BC6FBBAF60EF0EF062EF0EF0E4
:101CC00065EF0EF08B8A66EF0EF08B9A8BA86BEFA8
:101CD0000EF06DEF0EF071EF0EF0D880BD3774EF9F
:101CE0000EF0BD51BD25BD6F8B8600F000F000F0F9
:101CF00000F000F000F000F000F000F000F000F064
:101D000000F08B960001D890BB37BC2B070EBC654A
:101D10008CEF0EF08EEF0EF05BEF0EF01200016E06
:101D200001C003F0000E026E01AE99EF0EF09BEFC2
:101D30000EF09EEF0EF08B8A9FEF0EF08B9A8BA821
:101D4000A4EF0EF0A6EF0EF0AAEF0EF0D880033647
:101D5000ADEF0EF003500324036E8B8600F000F00D
:101D600000F000F000F000F000F000F000F000F0F3
:101D700000F000F08B96D8900136022A070E02641C
:101D8000C4EF0EF0C6EF0EF094EF0EF0120033EC3D
:101D900012F0979C8E9C110E0001C26F3A0EE82E35
:101DA000FED7C22FFCD700F08E8C000EEDEC11F0A8
:101DB000010EEDEC11F0000E0001BE6F120ECDEC25
:101DC00011F0310E0001C26FB20EE82EFED7C22F05
:101DD000FCD700F0320E16EC0EF03C0E16EC0EF0B6
:101DE0000C0E16EC0EF0010E16EC0EF0060E16ECB4
:101DF0000EF012009A0E586E000E596E160E5A6EA4
:101E0000100E5B6E75C05CF05D6A7FEC10F0800EAA
:101E10002DEC0FF09A0E086E000E096EC6EC0FF056
:101E2000250E93EC0FF09A0E586E000E596E160E9A
:101E30005A6E100E5B6E73C05CF05D6A7FEC10F042
:101E4000C00E2DEC0FF09A0E086E000E096EC6EC57
:101E50000FF0430E93EC0FF01200076E110E066E9A
:101E60003A0EE82EFED7062EFCD700D0000E046EE8
:101E7000120E0AEC12F0040E066E3E0EE82EFED78D
:101E8000062EFCD707C004F0130E0AEC12F0040E65
:101E9000066E3E0EE82EFED7062EFCD7400E046ED0
:101EA000120E0AEC12F0040E066E3E0EE82EFED75D
:101EB000062EFCD7000E046E120E0AEC12F0120071
:101EC00052C056F053C057F0000E0001616F000E73
:101ED000606F7EEF0FF050C040F051C041F0560EE1
:101EE000426E000E436E54C044F055C045F07EEC87
:101EF0000AF04050000160274150612356C0F6FFB0
:101F000057C0F7FF000EF86E0800F5500009D8A47E
:101F10008CEF0FF08EEF0FF06BEF0FF060C050F012
:101F200061C051F01200076E110E066E3A0EE82ED7
:101F3000FED7062EFCD700D0800E046E120E0AECDF
:101F400012F0040E066E3E0EE82EFED7062EFCD7CB
:101F500007C004F0130E0AEC12F0040E066E3E0EDB
:101F6000E82EFED7062EFCD7C00E046E120E0AEC29
:101F700012F0040E066E3E0EE82EFED7062EFCD79B
:101F8000000E046E120E0AEC12F01200DDEF0FF0DC
:101F900008C0F6FF09C0F7FF000EF86E0F0EF764D9
:101FA00003D00800F55005D0F6CFE1FFF7CFE2FFF0
:101FB000E75093EC0FF0084A092A08C0F6FF09C061
:101FC000F7FF000EF86E0F0EF76403D00800F5500F
:101FD00005D0F6CFE1FFF7CFE2FFE7500009D8A424
:101FE000F4EF0FF0F6EF0FF0C8EF0FF01200000E55
:101FF000026E000E016E82A000EF10F002EF10F0F2
:10200000FBEF0FF0190EE82EFED782A00AEF10F0BA
:102010000CEF10F010EF10F0D880023613EF10F034
:1020200002500224026E82B018EF10F01AEF10F086
:1020300013EF10F0012A070E016421EF10F023EFD7
:1020400010F0FBEF0FF00250120080AA2AEF10F000
:102050002CEF10F035EF10F0000E0001786F000E3D
:10206000026E000E016E51EF10F080BA3AEF10F0E0
:102070003CEF10F04DEF10F000017851D8A443EF81
:1020800010F045EF10F04DEF10F0010E786F000EDC
:10209000026E010E016E51EF10F0000E026E000E86
:1020A000016E120081A057EF10F059EF10F062EFAF
:1020B00010F0000E0001796F000E026E000E016E2E
:1020C0007EEF10F081B067EF10F069EF10F07AEF5B
:1020D00010F000017951D8A470EF10F072EF10F0F9
:1020E0007AEF10F0010E796F000E026E010E016E94
:1020F0007EEF10F0000E026E000E016E12005C0EFC
:102100000001A96F000EAA6F58C0ABF059C0ACF027
:10211000000EAE6F000EAD6F000EB06F000EAF6F11
:10212000AB0E506E000E516E5AC052F05BC053F0B1
:10213000A90E546E000E556E60EC0FF00001AD510B
:102140005824D96EAE515920DA6E000EDF6E12009F
:10215000000E106E000E0F6EB9EF10F00EC001F001
:10216000026A0CC003F00DC004F04EEC0DF00F4AF3
:10217000102A0F500A24D96E10500B20DA6EDF504F
:102180000E6E0E50D8A4C7EF10F0C9EF10F0AEEFEE
:1021900010F0120025EC10F001500210D8B4D3EF6B
:1021A00010F0D5EF10F0EAEF10F0010E0001C52598
:1021B000C56F000EC621C66F630EC519C611D8A41F
:1021C000E4EF10F0E6EF10F0EAEF10F0000EC66F4B
:1021D000190EC56F120025EC10F001500210D8B492
:1021E000F4EF10F0F6EF10F00AEF11F0FF0E00011F
:1021F000C325C36FFF0EC421C46FC551C611D8A437
:1022000004EF11F006EF11F00AEF11F0000EC66FA7
:10221000480EC56F120014BE18EF11F0145006E1FD
:102220001304D8B016EF11F018EF11F026EF11F0EB
:1022300013C015F014C016F0151E161E154A162AE6
:1022400015C013F016C014F02AEF11F013C013F0EC
:1022500014C014F01200800E2DEC0FF0010E086E69
:10226000100E096EC6EC0FF0A40E586E000E596EDB
:10227000160E5A6E100E5B6EC5C05CF0C6C05DF0E7
:102280007FEC10F0A40E086E000E096EC6EC0FF085
:102290001200800E2DEC0FF00C0E086E100E096E61
:1022A000C6EC0FF0A40E586E000E596E160E5A6E44
:1022B000100E5B6EC3C05CF0C4C05DF07FEC10F02C
:1022C000A40E086E000E096EC6EC0FF01200880E08
:1022D000F66E240EF76E000EF86E00EEC3F010EEF0
:1022E00004F00900F5CFEEFFE550E150FAE100EE11
:1022F00060F0470EEE6AE806FDE15E6A5F905F926D
:10230000000117EF12F001C003F002C004F08BEFE0
:1023100011F0014A022A01C0D9FF02C0DAFFDF50E2
:10232000D8A495EF11F097EF11F089EF11F0035059
:10233000015C016E04500258026E1200DDEC11F0D7
:10234000B7EC11F0F7EC0FF00001756FF7EC0FF040
:102350000001766FF7EC0FF00001736FF7EC0FF0F0
:102360000001746FF7EC0FF00001726F120082B081
:10237000BCEF11F0BEEF11F0B7EF11F082A0C3EF88
:1023800011F0C5EF11F0BEEF11F082B0CAEF11F0FD
:10239000CCEF11F0C5EF11F012000001BF6F89946E
:1023A000400E54EC0EF00001BF5154EC0EF0000151
:1023B000BE5154EC0EF08984120094908B903B0E29
:1023C000016E700EE82EFED7012EFCD78B80100E0A
:1023D000E82EFED700D0948012000001BE6F8994D1
:1023E000400E54EC0EF00001BE5154EC0EF0000E05
:1023F00054EC0EF089841200080ED56EB10ED76E23
:10240000E00ED66ED6CFC7F0D7CFC8F0F294F28ADE
:10241000D58E1200056E8994400E8FEC0EF005509B
:102420008FEC0EF004508FEC0EF08984120021EC3A
:1024300012F0C7EC0EF0F28EF28C1DEF12F007EFE7
:1024400000F02AEC12F03CEC12F041EC12F0FCEC43
:1024500011F01200000E956E000E8C6E9380928A21
:102460000F0EC16E120092949488949A9496898467
:102470008B888B9A8B961200730ED36E400E9B6ED8
:0E2480001200D09EF19412005F0019001200AD
:020000040020DA
:08000000FFFFFFFFFFFFFFFF00
:020000040030CA
:0E000000FF08191EF38381FFFFC0FFE0FF40E1
:00000001FF
